:10000000B02B0020090100000501000007010000DD
:1000100000000000000000000000000000000000E0
:1000200000000000000000000000000005010000CA
:100030000000000000000000050100008D2100000C
:100040000D080000250A000005010000BD010000A8
:100050000501000005010000050100000501000088
:100060000501000005010000050100000501000078
:10007000050100000501000081120000D9160000F2
:100080000501000005010000050100000501000058
:100090000501000005010000050100000501000048
:1000A00005010000410D0000050E000005010000E3
:1000B00005010000050100000501000010B5064C17
:1000C0002378002B07D1054B002B02D0044800E019
:1000D00000BF0123237010BD5C120020000000004F
:1000E00014940000044B10B5002B03D003490448BE
:1000F00000E000BF10BDC0460000000060120020FC
:1001000014940000FEE7FEE710B50E4A0E4B9A422B
:1001100007D00D4B0B4A01E002CA02C30B498B42C8
:10012000FAD30B4B01E0002204C30A4A9342FAD3EC
:10013000094BFF229343094A936008F01DFD02F02A
:1001400007F8FEE714940000001000205C12002065
:100150005C120020B01B00200000000000ED00E059
:10016000144A80230821D150BFF34F8FBFF36F8F04
:10017000114A137801210B4313700F4B1B78DB07D7
:10018000FBD40D4B02209861D96970229143603AEB
:100190000A43DA6118610749C022520006308850CC
:1001A0001A7802210A431A70034B5B689B07FBD441
:1001B0007047C04600E100E000280040074A13688D
:1001C0000133136006494B691B0C1B0402221A43BE
:1001D0004A61044B01221A707047C0467C1200200D
:1001E0000028004078120020014B1878C0B27047F8
:1001F00078120020014B18707047C046781200201A
:10020000044A80230821D150BFF34F8FBFF36F8F73
:100210007047C04600E100E0074BC02292009958A9
:10022000064801409950022119609958FF208143E6
:10023000995001221A60704700E100E0FF00FFFFC3
:10024000054B1B78002B04D164205843034BC01886
:10025000704700BE0148FBE780120020288C000098
:1002600010B5FFF7EDFF807A023810BD10B50028F9
:1002700038D01D4B1B681B0B1B04FE22D2031340FE
:1002800002781202E021C9000A4013434278910625
:10029000C90FC9010B439107C90F89010B435107CE
:1002A000C90FC9000B431107C90F89000B43D107C0
:1002B000C90F09030B43D206D20F520013430B4957
:1002C0008B6143785B06CA69DB0FDB03084C224075
:1002D0001343CB614378DB0603D5044BDB689B07F4
:1002E000FBD510BD00BEFCE720608000001400407C
:1002F000FF7FFFFF30B5002800D17CE0437A9B07E9
:10030000DB0F3E4A147D01210B409B014025AC438D
:10031000234313750479E407E40F137D214049005A
:100320000224A34319431175447C537D0F212140BE
:100330000F24A3430B435375304B9B695B07FBD4DE
:10034000847C2E498B7D072222400724A34313433C
:100350008B75437ADB07DB0F0C7DDB017F222240AC
:1003600013430B75254BDB68DB06FBD543791B0379
:100370009BB2C2791202E021C9000A401343027AFB
:100380009107C90F89010B435107C90F09010B439D
:100390001107C90FC9000B43D206D20F92001343B5
:1003A000022213439BB2154A1382017A937C4909B6
:1003B0000724A3430B439374104BDB68DB07FBD587
:1003C0008379DB07DB0F0D4A148A01210B40DB0226
:1003D0000B4D2C4023431382007AC007C00F138AB1
:1003E0000140C901802083431943118253680221CF
:1003F0000B43536030BD00BEFCE7C0460010004018
:10040000FFF7FFFF052802D900BE00207047012337
:100410008340D8B2FAE70000002846D0037B1B04D3
:10042000F0221203134002881205120D1343204AD2
:10043000136243881B041F4A1340427BD207D20F2A
:1004400012031343827B1202E021C9000A401343C6
:10045000817A0A1C022900D90222D2B2120130216B
:100460000A401343C27BD107C90FC9000B4392074F
:10047000D20F92001343017C03220A4013430C491C
:100480004B62C37A9B07DB0F9B0102799207D20F65
:10049000520013430B77C37ADB07DB0F087FDB01C6
:1004A0007F22024013430B77704700BEFCE7C04633
:1004B000001000400000FF07002809D0054B02682B
:1004C0001A6142685A6182689A61C268DA6170474B
:1004D00000BEFCE70008004083069B0E2C2B0FD8C3
:1004E0000205120F082A0BD80106C90F89010A4319
:1004F0004006C00FC001104320339B00014A9850B2
:100500007047C046001C004070B5051E01D0002495
:1005100008E000BE08E0230012339B005859FFF7A3
:10052000DBFF0134022CF6D970BD10B5052801D9C6
:1005300000BE10BD0F231840000271331843FFF7AF
:10054000CBFFF6E710B5002803D0052903D900BE7C
:1005500010BD00BEFCE703881B0402799407E40F7A
:10056000640323435407E40F240323431407E40FD5
:10057000E4022343D406E40FA40223439406E40FC9
:1005800064022343D207D20F12021343428813435B
:1005900008318900034A8B50024B5A68024B1A42B9
:1005A000FAD1D5E7001C0040FD070000F8B50700B0
:1005B0000E001500062910D800280ED0002407E0F0
:1005C000E00038182100FFF7BDFF6D080134E4B2E8
:1005D000B44202D2EB07F8D5F2E7F8BD70B588B0A7
:1005E00005006C460A4B220043CB43C243CB43C2B7
:1005F00003CB03C2FFF724FE037A5B099B00195962
:10060000044807F06BFB290007F068FB08B070BDD9
:10061000088C0000006CDC02052818D8082813D8C4
:1006200080000D4B1B589F460C4812E00C4810E010
:100630000C480EE00C480CE00C480AE0002008E0F2
:10064000002006E0002004E000BE002001E000BE23
:10065000002070470648FCE7E48B0000006CDC02D9
:1006600040420F0000127A000024F40048E8010024
:1006700080841E0010B5FFF7F3FD0400FFF7CCFFE8
:10068000FFF7ACFF07490834A400635802041804BC
:10069000000C10436050034B5A68034B1A42FAD1C6
:1006A00010BDC046001C0040FD070000064B0022A4
:1006B0001A700132054B1A7005494B680420034338
:1006C0004B60044B1A717047801200208112002089
:1006D000004000410008004070B51D4B1B78002B06
:1006E00002D100BE012070BD1A4B1870FFF7A8FDA3
:1006F0000400857A1430FFF7B9FD2000FFF7FAFDFA
:10070000012D12D83E252000FFF786FE200018306C
:100710002A000621FFF74AFF2000FFF7F5FE200020
:100720005430FFF7C9FE0020DDE7FFF799FDC6B2A0
:100730003000FFF767FE02003E2585432000183099
:100740000621FFF733FF3000FFF7EFFEDBE7C0467F
:100750008112002080120020074A3023D35CDBB2D4
:10076000064A1078002804D003221340032B01D03E
:10077000962070476920FCE700100040811200209D
:1007800010B50C4B1B78002B02D100BE012010BD10
:10079000FFF7E2FF692801D00120F8E7064B1B783C
:1007A000053858431830054BC0180021FFF7CAFE22
:1007B0000020ECE78112002080120020288C00002D
:1007C000014BFF221A73FEE7002000400B4B1B7801
:1007D000002B10D00A4A0B4B53600B48036A1B02D4
:1007E0001B0AC02109060B430362002393600733F1
:1007F0001360002070470120FCE7C04681120020F2
:1008000010E000E07FBB000000ED00E010B5054BFC
:100810009B689B0700D410BD024B02229A60FFF731
:1008200029FFF8E700100040024A536D77218B43FF
:1008300053657047001C0042024A536D77210B43F9
:1008400053657047001C004210B501211E2000F0C6
:100850006BFB0121142000F067FB0021152000F044
:1008600063FB0021162000F05FFB10BDF0B5C6460B
:1008700000B500F0BDF82C4D2B6801229046934343
:100880002B6000F09FFC0121062000F04DFB0121B0
:10089000072000F049FB00213E2000F045FB00212D
:1008A0002D2000F041FB00210A2000F03DFB1F4AF3
:1008B000537807218B4353701D4C80238026B60448
:1008C000E650BFF34F8FBFF36F8F8027FF04E750D1
:1008D000BFF34F8FBFF36F8FFFF792FC30BFC02382
:1008E0005B00E750E6502760266001210A2000F0F7
:1008F0001BFB0021062000F017FB0021072000F061
:1009000013FB01213E2000F00FFB01212D2000F000
:100910000BFB00F045FC2B68424613432B6000F0B4
:1009200073F804BC9046F0BD10E000E00004004005
:1009300000E100E0034B1878C0091B789B07DB0F30
:100940001843704700200040044A137804218B4369
:100950001370024B9B685B07FBD47047002000407C
:10096000054A53780F218B435370537803210B436F
:10097000DBB253707047C04600200040044A117833
:100980007F230B401370024B9B681B07FBD47047FF
:1009900000200040054A93780F218B4302210B432E
:1009A0009370537901210B4353717047002000402D
:1009B000054A137802210B43DBB21370024B9B688C
:1009C0009B07FBD47047C0460020004010B5FFF7DE
:1009D000B1FF002800D010BDFFF7B6FFFFF7C0FF42
:1009E000FFF7CCFFFFF7D6FFFFF7E2FFF3E70000CA
:1009F000044A137802218B431370024B9B689B07B8
:100A0000FBD470470020004010B5FFF7D1FF10BDA8
:100A1000034BA5221A73024B9B68DB06FBD470477D
:100A20000020004000BE7047524B1B78DAB2002B0A
:100A300031D1514B1B789B0700D566E04E4B852189
:100A40009970053959734C4B1B8C9B06FBD44A4B50
:100A50000721597000215981474B1B8C1B07FBD480
:100A6000454B0121597106319971002A60D0434BE1
:100A7000C62189005A58424802405A5080229204A6
:100A80001A603C4B01221A703B4B01321A703A4BF0
:100A90001B8C9B07FBD43B4B1B78DAB2002B33D16A
:100AA000394B1B789B074AD4374B85219970053900
:100AB0005973354B1B8C9B06FBD4334B0721597064
:100AC00000215981304B1B8C1B07FBD42E4B01217D
:100AD000597106319971002A44D0284BC6208000F4
:100AE0001A582A4911408022D2030A431A50802200
:100AF000D2041A60234B01221A70234B01321A7060
:100B0000214B1B8C9B07FBD470471B490B780220A1
:100B100083430B70184B1B8C9B07FBD416490B7837
:100B2000012003430B70144B1B8CDB07FBD485E7C0
:100B3000D100174B0020C8540132D2B295E71249B8
:100B40000B78022083430B700F4B1B8C9B07FBD44D
:100B50000D490B78012003430B700B4B1B8CDB07FB
:100B6000FBD4A1E7D1000B4B0020C8540132D2B214
:100B7000B1E7C046861200200044004200E100E0D8
:100B8000FF00FFFF8712002000480042FFFF00FF28
:100B9000001000200810002072B6194B1B78012BA2
:100BA00001D062B67047002828D1C300154A9B5C6B
:100BB000012B21D0124B02221A7062B6124B187010
:100BC000124B00221A70124A0123937143001B1822
:100BD0009B0010495B581978C0235B010B431381BC
:100BE0000B4B1B8C5B07FBD4C000064B0122C2548D
:100BF000074B01321A76D5E762B6D3E762B6D1E782
:100C00008612002000100020831200208212002093
:100C1000004400428C8C000072B6194B1B78012BEB
:100C200001D062B67047002828D1C300154A9B5CEA
:100C3000012B21D0124B02221A7062B6124B18708F
:100C4000124B00221A70124A0123937143001B18A1
:100C50009B0010495B581978C0235B010B4313813B
:100C60000B4B1B8C5B07FBD4C000064B0122C2540C
:100C7000074B01321A76D5E762B6D3E762B6D1E701
:100C80008712002008100020851200208412002006
:100C900000480042988C000070B503000800104A1C
:100CA0001278002A06D1002B04D1DA000D49525CDB
:100CB000032A10D00B4CDD00621951685A00D3187A
:100CC0009B00094AD3181A79520007F079FF0023D4
:100CD0002B55002070BD0028ECD00120FAE7C0465B
:100CE00086120020001000208C8C000070B50300DC
:100CF0000800104A1278002A06D1002B04D1DA002D
:100D00000D49525C032A10D00B4CDD00621951686A
:100D10005A00D3189B00094AD3181A79520007F0D9
:100D20004FFF00232B55002070BD0028ECD0012080
:100D3000FAE7C0468712002008100020988C0000B7
:100D400010B52A480123837129490A78D200294B1A
:100D50009B185C68284A13785B00808CE0521378FB
:100D60000133DBB213700B7859005B189900234BE9
:100D70005B1819791378DBB299421AD91C4B1B788E
:100D80005A009B189A001D4BD2581B4B1B78DBB2A4
:100D9000D05C16490B891F2202401F208343134356
:100DA0000B81124B1B8C5B07FBD4104B02221A7673
:100DB00010BD134B01221A700D4A1378DB000D4948
:100DC0000320585413785A009B189A000B4B9B1819
:100DD0009B68002BECD0064B1B785A009B189A009E
:100DE000064B9B189B689847E2E7C04600440042C8
:100DF0008312002000100020821200208C8C000042
:100E00008612002010B52A480123837129490A78E7
:100E1000D200294B9B185C68284A13785B00808CB1
:100E2000E05213780133DBB213700B7859005B1872
:100E30009900234B5B1819791378DBB299421AD9C0
:100E40001C4B1B785A009B189A001D4BD2581B4B09
:100E50001B78DBB2D05C16490B891F2202401F2091
:100E6000834313430B81124B1B8C5B07FBD4104B4A
:100E700002221A7610BD134B01221A700D4A137804
:100E8000DB000D490320585413785A009B189A0030
:100E90000B4B9B189B68002BECD0064B1B785A0021
:100EA0009B189A00064B9B189B689847E2E7C04640
:100EB0000048004285120020081000208412002003
:100EC000988C0000871200201F2807D88223DB059A
:100ED0001B69C34018000123184070473F2809D8F8
:100EE0008222D2059023D3582038C3401800012312
:100EF0001840F2E70020F0E71F2807D88223DB051F
:100F00001B6AC34018000123184070473F2809D8C6
:100F10008222D205A023D3582038C34018000123D1
:100F20001840F2E70020F0E71F2805D93F280FD826
:100F30002038C0B2012300E0002301290BD0012298
:100F40008240DB018221C9058C4663445A617047A7
:100F500000230020F1E701228240DB018221C90544
:100F60008C4663449A61F2E7F0B5DE4657464E463A
:100F70004546E0B583B08046554A1060554A127820
:100F80009146002A00D09BE0002800D198E0CC4692
:100F900080E051490B4051490B400199C901C020E3
:100FA000C005824651444C604E61802189020B434A
:100FB0000BE0117909070909494C23400B438021B3
:100FC00049020B43802149050B4311798A46C90622
:100FD000C90F012421408904424803400B43514674
:100FE0008906C90F0C40A4053F490B4023438021CB
:100FF000C9050B435B0011885B0C1B040B43019973
:10100000C9018220C005824651448B628024240697
:10101000234352881B0C1B0413438B620135EDB232
:101020003A7AAA421BD9EA00F9688A4652441468FF
:10103000A64311798A460F21504601400829A8D0BD
:101040000929B6D124490B4024490B400199C90113
:10105000C020C005824651448C604E61B5E7019BBB
:10106000D801C023DB05C3189E605E618023DB05C9
:101070005A00B1B20B438221C9058A4650448362AB
:101080001343360C1B0C1B0433438362624601324C
:10109000D2B294466246012A0ED8624617014744EE
:1010A0000192D201C021C9058A46524439681161B2
:1010B0004D4601267642B3E7064B01221A7000E046
:1010C00000BE03B03CBC90469946A246AB46F0BD7C
:1010D000881200208C120020FFFFFEFFFFFFFFEFB1
:1010E000FFFFFFF0FFFFFBFFFFFFBFFF1A49CB69C8
:1010F00040221343CB611949E423CA50184BDB69E2
:10110000002BFBD1164B1968022291431960002273
:101110009A81134BDB69002BFBD1114B114A1A60EA
:10112000114A5A6000229A609C329A81963A9A75C6
:101130000B4BDB69002BFBD10C4BC32189005A58A8
:101140000B4802405A508022D2011A600023094AFB
:101150001370094A1370704700080040001C0040DB
:1011600000180042042010420001030000E100E0EA
:10117000FFFF00FF8E1200208D120020704700003C
:10118000034B1B7EDB0701D5014B18857047C0461A
:1011900000180042014B18787047C0468D1200209D
:1011A000074B9A7D02210A439A759A7D04210A43CE
:1011B0009A75997D802252420A439A757047C046BB
:1011C00000180042074B1A7D02210A431A751A7D46
:1011D00004210A431A75197D802252420A431A7566
:1011E0007047C0460018004210B5FFF7EBFF054BF3
:1011F0001968022291431960024BDB699B07FBD4FB
:1012000010BDC0460018004210B5FFF7C9FF054ADF
:10121000116802230B431360024BDB699B07FBD46D
:1012200010BDC04600180042074B1A7E02210A4337
:101230001A761A7E20210A431A76197E802252429B
:101240000A431A767047C0460018004210B5FFF7EF
:10125000EBFF08494A68084B1A4080235B0413439C
:101260004B600B7EDB0701D500220A85034B012270
:101270001A7010BD00180042FFFFFFFC8E12002004
:1012800010B501F0E9FF040001F0DAFF254B1B7EE9
:101290005B070DD5234B1A8D234B1A700B2C05D0F1
:1012A000072C03D0082C01D00C2C01D101F0A0FE9A
:1012B0001C4B1B7E9B070DD51A4A137E02210B4344
:1012C00013761A4B1B78002B16D0184B00221A707D
:1012D000002C0ED1134B1B7EDB0912D1114B5B8B03
:1012E0009B0617D40F4A538B37210B439BB2538372
:1012F00010BD01F07DFEEDE7002CEBD001F078FE93
:10130000E8E701F0FFFD01F019FDFFF7EFFEFFF741
:101310007BFFE3E701F012FDFFF7E8FEFFF774FF44
:10132000E0E7C046001800428D1200208E12002017
:101330000020704710B503F087FD10BD10B503F015
:1013400067FD10BD10B503F00FFE10BD01238340F3
:10135000044A12681168D4228B50034A11689943D9
:10136000116070479812002090120020024B1B68F9
:101370001868C000400D7047DC190020054B1B6841
:101380001A68A423D3585B0601D0012070470020BF
:10139000FCE7C04698120020054B1B681968012322
:1013A0008340D0228B50034A11680B43136070476F
:1013B000981200209012002030B50020112823D868
:1013C000124B8200D15889008908802424060C43DE
:1013D000D450D4580E490C40802109052143D150E6
:1013E0000C4909684400615AD458490549090A4D15
:1013F0002C402143D150D158C90AC902074C0C4393
:10140000D4500130C0B2D9E730BDC0469C12002094
:10141000FFFFFFC758100020FFFF00F8FF0100008A
:10142000F8B53F4B3F4A13603F4A1A609169012368
:101430000B4393613C4B9B69DB07FBD53A4B9969A6
:1014400002240A0022439A61354A384991619A6917
:101450009A6100229A603649D9613649D960364E80
:101460003004000CA02149030143A0201950BC21E5
:101470005A500C315A5031490904090C3048014383
:10148000C0201950F0218020C00258508025C73953
:1014900059512C490904090C902040030143842030
:1014A000195088215A5008315A50FFF785FF1D49BD
:1014B0000B681A6824485065E022012040421F68EA
:1014C000B8501A68A423D3589B049B0E9A00D318D3
:1014D0009A0296191D4B1E601D4B802212025A5112
:1014E000BFF34F8FBFF36F8F8230FF301A501A60F7
:1014F0000A6813680121D96513689D692800A04313
:101500009861136898698843986113689B69DB0741
:10151000FBD4104B5360104B9360104BD360F8BD5D
:10152000C019002098120020001C00425C1000200E
:10153000030A0006330A0000E0190020201B0020E7
:10154000000006069C12002009028003DC1900201E
:1015500000E100E03D1300003513000045130000DA
:10156000064B1B681A68CC23D258CB3B83401342EE
:1015700001D1012070470020FCE7C04698120020EE
:1015800070B50B4B1C682168A4200B589B049B0E64
:10159000A8254A593F26B24313434B5123681B5891
:1015A0009B049B0E1B01034A9B18034A136070BDEA
:1015B00098120020E0190020DC1900200C4B1B6859
:1015C0001A68D823D3580B4A11680A001A401942E6
:1015D00001D10020704700201F2806D80123834036
:1015E0001A42F7D10130C0B2F6E70020F2E7C04658
:1015F0009812002090120020084B1B78002B08D175
:10160000074A803380210902D150BFF34F8FBFF3C7
:101610006F8F024A137801331370704794120020C1
:1016200000E100E0054A1378013BDBB21370002BA8
:1016300003D1034B802212021A60704794120020DB
:1016400000E100E001238340024A116899431160E0
:101650007047C04690120020F8B50F0015001E001C
:101660000401184BE418FFF7EDFFBF042760082DB5
:1016700007D863680F222A40120413490B40134312
:101680006360124B186803689969C905C90F6268DD
:101690000123194049050E4F3A4011436160026829
:1016A00091698905C90F62680B401B0509490A4009
:1016B00013436360200008302A00310007F080FAED
:1016C000F8BDC046201B0020FFFFF0FF981200204D
:1016D000FFFFDFFFFFFFEFFF10B51A4B1B681A6813
:1016E000146DE20701D59B689847A30503D5154BF8
:1016F0001B685B689847A30104D5124B1B68DB6825
:1017000003209847E30104D50E4B1B68DB680020DB
:101710009847230208D50B4B1B68DA681B685B6C83
:101720009B060DD502209047230704D5054B1B6867
:10173000DB6804209847034B1B681B681C6510BDC1
:101740000120F0E798120020054B1A681368986989
:1017500001218843986113689B69DB07FBD47047BC
:1017600098120020024B1B681B68186CC0B27047AF
:101770009812002010B586B001AC21000020FFF7C0
:10178000B5FA2288274B1A8162881A805A8004236E
:10179000E25E254B1A800623E25E244B1A8030203D
:1017A000FFF792FB012824D1214A1378591C1170AC
:1017B000032B11D804AC21000020FFF76DFA22881A
:1017C000184B9A806288DA80A2881A4B1A801A4BCA
:1017D00000221A7006B010BD01AB08229A5E174BAA
:1017E0001A8000212F30FFF79FFB114B00221A7047
:1017F000E0E73020FFF768FB0028DBD10C4A1378C4
:10180000591C1170032BD5D901AB08229A5E0C4BE1
:101810001A8001213030FFF787FB054B00221A7038
:10182000C8E7C046F8120020101300200E13002055
:101830001613002018130020021300201413002098
:101840001213002010B5074B1B78002B00D010BDE1
:101850000020FFF7A1F90020FFF7DEF9014B01227C
:101860001A70F4E702130020002301E00133DBB219
:10187000032B0CD81F4A11889A001F48125A914214
:10188000F4D398001C4A121852889142EED81B4A91
:1018900012789A4207D01A4A00211170174A137021
:1018A000184B1878704716490A780132D2B20A707C
:1018B000052AF3D90A0000211170002B03D1114A27
:1018C00001311170EAE7012B07D0022B09D0032B5D
:1018D0000BD00C4A03211170E0E70A4A0221117073
:1018E000DCE7084A00211170D8E7064A0021117090
:1018F000D4E7C046F8120020E08C00001A13002044
:101900001F130020F1120020002301E00133DBB29D
:10191000032B0CD81E4A51889A001E48125A914235
:10192000F4D398001B4A121852889142EED81A4AF2
:1019300012789A4207D0194A00211170164A137082
:10194000174B1878704715490A780132D2B20A70DD
:10195000052AF3D90A0000211170002B02D1104A88
:101960001170EBE7012B07D0022B09D0032B0BD012
:101970000B4A03211170E1E7094A00211170DDE7EC
:10198000074A01211170D9E7054A00211170D5E7F6
:10199000F8120020FC8C00001B13002020130020F4
:1019A000F3120020002301E00133DBB2022B0CD83C
:1019B0001F4A91889A001F48125A9142F4D3980006
:1019C0001C4A121852889142EED81B4A12789A4249
:1019D00007D01A4A00211170174A1370184B187853
:1019E000704716490A780132D2B20A70032AF3D935
:1019F0000A0000211170002B09D1114A1170114AFF
:101A00001278002AE8D10F4A01211170E4E7012B76
:101A100005D0022B07D00A4A03211170EFE7084ACC
:101A200001211170EBE7064A02211170E7E7C04679
:101A3000F8120020D08C00001C130020211300207D
:101A4000E7120020E81200200023002B0BD0164ADA
:101A500012789A4214D0154A00211170124A13705C
:101A6000134B18787047134AD1889A001248125ABB
:101A7000914202D3114A9142E9D90133DBB2E4E742
:101A80000A490A780132D2B20A70052AE6D90A0058
:101A900000211170002B02D1054A1170DEE7044AC3
:101AA00001211170DAE7C0461D1300202213002027
:101AB000ED120020F8120020DC8C00001904000058
:101AC00010B52020FFF718FA314C20702320FFF7C3
:101AD00013FA020060702378012B18D0012B25D057
:101AE000002B01D1012A30D0012B3AD0294B0722FB
:101AF0001A70294B1A78274B1B789A423BD0274AF9
:101B000000211170244A1370254B187810BD00284D
:101B1000E4D12449098924488142DFD92A30FF30A1
:101B20008142DBD21B4B03321A70E2E7012AD7D184
:101B30001C490989D82080008142D1D31B488142A9
:101B4000CED8144B01321A70D3E7164909891648CA
:101B50008142C9D92A30FF308142C5D20D4B1A705B
:101B6000C7E7012AC2D10F4B1B89642BBED8094B92
:101B700000221A70BDE709490A780132D2B20A7010
:101B8000052ABFD90A0000211170054A1370B9E770
:101B900004130020F5120020F61200202313002069
:101BA000F4120020F8120020D70E000039040000C3
:101BB00010B50220FFF7A0F9264CA0700120FFF716
:101BC0009BF9E0700020FFF797F902002071A378DD
:101BD000002B08D01F49C978002904D1002802D160
:101BE0001D4B18701AE0002B09D01A49C97800293A
:101BF00005D0002A03D0184B01221A700EE0002BEA
:101C000009D1144BDB78002B05D1002A03D0124BED
:101C100002221A7002E0104B03221A700F4B1A783E
:101C20000D4B1B789A4207D00D4A002111700B4AC8
:101C300013700C4B187810BD09490A780132D2B2E2
:101C40000A70032AF3D90A0000211170054A1370A3
:101C5000EDE7C04604130020EA120020EB1200203A
:101C600024130020E912002010B52520FFF744F9C5
:101C7000264C60712420FFF73FF9A0710320FFF785
:101C80003BF90200E0716379002B09D11F49897982
:101C9000002905D0002803D01D4B01221A701AE03C
:101CA000002B09D019498979002905D1002A03D0D0
:101CB000174B00221A700EE0002B09D0134B9B79B2
:101CC000002B05D0002A03D1114B02321A7002E01A
:101CD0000F4B03221A700F4B1A780D4B1B789A4248
:101CE00007D00D4A002111700A4A13700B4B187867
:101CF00010BD09490A780132D2B20A70052AF3D917
:101D00000A0000211170054A1370EDE7041300204A
:101D1000E5120020E612002025130020E412002026
:101D200010B50520FFF7E8F8174A1072012805D012
:101D3000002806D1154B01221A7002E0134B002235
:101D40001A70134B1A78114B1B789A4207D0114A1C
:101D5000002111700E4A13700F4B187810BD0D49F9
:101D60000A780132D2B20A70032AF3D90A0000219C
:101D70001170094A1370094A1278002AEAD1074AF9
:101D800001311170E6E7C04604130020EF12002075
:101D9000F012002026130020EC120020EE1200208A
:101DA000014B18787047C046EE120020014B18789E
:101DB0007047C046E8120020002301E00133DBB287
:101DC000022B0CD89A001949515A194A128891428B
:101DD000F4D898001549091849888A42EED8154A5E
:101DE00012789A4207D0144A00211170114A1370D8
:101DF000124B1878704710490A780132D2B20A7033
:101E0000052AF3D90A0000211170002B02D10B4AD8
:101E10001170EBE7012B05D0022BE7D1074A022115
:101E20001170E3E7054A01211170DFE7F08C000033
:101E3000181300201E13002027130020F212002088
:101E400010B5084B00229B5E07485843074905F030
:101E5000CFFF00B2064B984201DC002010BD0120EC
:101E6000FCE7C04612130020AA050000FF0F000087
:101E7000D902000010B5084B00229B5E074858436A
:101E8000074905F0B5FF00B2064B984201DC00207F
:101E900010BD0120FCE7C04614130020AA05000075
:101EA000FF0F0000D902000010B5104B0020185E93
:101EB00006F014FE00220E4B06F06EFB00220D4BC6
:101EC00006F082F806F0D4FD04B21120FEF7FCFF04
:101ED000012803D0272C06DC002010BD064B9C42B5
:101EE000FBDC0020F9E70120F7E7C0460E130020D5
:101EF000000A9A4000FEAF400103000010B5104BED
:101F00000020185E06F0EAFD00220E4B06F044FBAE
:101F100000220D4B06F058F806F0AAFD04B212207C
:101F2000FEF7D2FF012803D0272C06DC002010BDCD
:101F3000064B9C42FBDC0020F9E70120F7E7C04696
:101F400010130020000A9A4000FEAF400103000079
:101F500070B5154B00229B5E14485843144905F098
:101F600047FF040005B2134B0020185E06F0B6FDD3
:101F70000022114B06F010FB0022104B06F024F853
:101F800006F076FD00B2854207DA80B2A4B2001BEB
:101F900080B24F2806D8002070BDA4B280B2201AAB
:101FA00080B2F6E70120F7E714130020AA0500002D
:101FB000FF0F000010130020000A9A4000FEAF40FF
:101FC00070B5154B00229B5E14485843144905F028
:101FD0000FFF040005B2134B0020185E06F07EFDD3
:101FE0000022114B06F0D8FA0022104B05F0ECFF4E
:101FF00006F03EFD00B2854207DA80B2A4B2001BB3
:1020000080B24F2806D8002070BDA4B280B2201A3A
:1020100080B2F6E70120F7E712130020AA050000BE
:10202000FF0F00000E130020000A9A4000FEAF4090
:1020300010B5064B1B78002B00D010BD01212D20C0
:10204000FEF772FF014B01221A70F6E728130020F9
:1020500010B501212D20FEF767FF10BD10B500213E
:102060002D20FEF761FF10BD10B50020FEF71EFB0E
:102070000020FEF731FBFEF76FFB6928FBD1FEF76E
:102080007FFBFEF7A3FB00F06CF8FEF7C5F8FEF748
:1020900067F810BD10B50548FEF766FF0020FEF793
:1020A000C3FC01210A20FEF73FFF10BDB08C0000E9
:1020B00010B503F0C5FF10BD10B5FFF7D5FFFFF752
:1020C000E9FFFFF7F5FF10BD10B5024802F052FB23
:1020D00010BDC0468810002010B5034800F05EF81F
:1020E000FFF7F2FF10BDC0460B20000010B505F051
:1020F000EDFD04F089FE04F079FE05F075F810BDE1
:1021000010B572B6FFF7D8FFFFF7E6FFFFF7EEFF57
:1021100062B610BD10B500F029F803F0B5FF10BD90
:1021200010B504F073FE04F063FE05F071F810BD05
:1021300010B5FFF7EFFFFFF7F3FFFEF785FB10BDCC
:1021400010B5024800F050F8FBE7C0460C20000034
:1021500010B5FFF7D5FFFFF7EBFFFFF7F1FF00BE6C
:10216000704710B50020FEF731FC10BD10B50621F8
:10217000014800F0A9F910BD1520000010B5FEF7C8
:1021800047FC10BD10B5FFF7F9FF10BD10B50248B0
:1021900000F08EF810BDC0460D20000010B50F4BAA
:1021A0005A221A700E4B98420CD10E4B00221A7014
:1021B00000F074FA094B1B785A2B09D1074B002207
:1021C0001A7010BD0120FFF7CAFFFEF7F9FAECE71D
:1021D0000120FFF7C4FFFEF7F3FAF2E72C1300200B
:1021E0000B2000002F13002070B5284B5A225A7084
:1021F000274B984213D1274B1B78DDB2002B14D00C
:10220000254800F0C3F9254800F050FB214A137817
:10221000013BDBB21370224B01221A70EBE7012065
:10222000FFF79DFFFEF7CCFAE5E70024012C09D863
:10223000E1B21C4800F0D6F8002802D00134A4B264
:10224000F4E70125002D03D1154B1B78002B05D099
:10225000002D03D1124B1B78002B07D10B4B5B7861
:102260005A2B0DD1094B00225A7070BD0E4800F058
:10227000E3FA0E4800F0D8F9094B00221A70EDE796
:102280000120FFF76CFFFEF79BFAEEE72C1300200E
:102290000C2000002F130020192000002020000037
:1022A00030130020012000001F2000001A20000031
:1022B00010B50F4B5A229A700E4B98420CD10E4A11
:1022C00013780133DBB21370094B9B785A2B09D179
:1022D000074B00229A7010BD0120FFF740FFFEF768
:1022E0006FFAECE70120FFF73AFFFEF769FAF2E731
:1022F0002C1300200D2000002F130020F8B50C0037
:10230000160080239B01984230D1324B5A221A800A
:10231000E300314A9B5C5A00D21892002F49891879
:102320008A7AC87A824227D9121AD2B2E0002A49A0
:1023300009184878904248D85A002949575C2749DB
:10234000D518AD006D58D21892008A18127AAC5484
:1023500097421AD30132D2B25900C91889001F4CD2
:1023600061180A72002831D0002419E00120FFF71B
:10237000F6FEFEF725FAC8E75D00194949194978C4
:10238000091AC9B25218D2B2D0E70022E4E70021FC
:102390005D00ED18AD00114A5519A9720134E4B27F
:1023A000A04210D95D00E91889000C4A52185768FC
:1023B000917A325D7A540A4A521952789142E6D89B
:1023C0000131C9B2E4E7002000E00120014B002206
:1023D0001A80F8BD5C130020108D000070100020E2
:1023E0000C8D0000F8B50C00324B984224D1324BD2
:1023F0005A225A80200063001B199B002F4AD318D1
:10240000197A5A7A91424DD063002D49595C1B19B3
:102410009B002A4D5B599D5C8A4213D80132D2B28F
:1024200061000C19A40025490C196272EA00254BC1
:102430009B185C78002210E00120FFF790FEFEF769
:10244000BFF9D4E70022EBE7002341000918890017
:102450001A4E7118CB720132D2B2944212D947008F
:102460003E18B600154B9B195968DB7AC95C1600FB
:102470006E4431701249C91949788B42E4D801334E
:10248000DBB2E2E7ED000F4B5D196B6868469847D9
:102490000024094B5B885A2B06D1074B00225A8037
:1024A0002000F8BD0224F4E70120FFF758FEFEF7F4
:1024B00087F9F5E7012000005C1300207010002070
:1024C0000C8D0000108D000010B50C00124B5A222C
:1024D0001A70124B984212D1092C07D8A400104B45
:1024E0000122E2540F4A1388013313800A4B1B78F0
:1024F0005A2B0AD1084B00221A70032010BD01206C
:10250000FFF72DFEFEF75CF9E6E70120FFF727FE57
:10251000FEF756F9F1E7C0466413002015200000CD
:102520006C1300206013002010B50C00134B5A22CE
:102530005A70134B984213D1092C17D8A400114B91
:102540000022E254104A1388013B138000240B4BF5
:102550005B785A2B0CD1094B00225A70200010BD19
:102560000120FFF7FCFDFEF72BF9E5E70324EEE77A
:102570000120FFF7F4FDFEF723F9EFE764130020D5
:10258000162000006C1300206013002070B5224B51
:102590005A22DA70214B984201D1002411E0012027
:1025A000FFF7DDFDFEF70CF9F7E76B005B195B0049
:1025B0001B4AD3189A88AD001A4B5D196A80013402
:1025C000A4B2092C19D82500A300164AD2185388A2
:1025D000013B9BB25380002BF1D1A300114A9B5CBD
:1025E000002BE2D063001B195B000D4A995C802030
:1025F00000228001FFF782FED7E7074BDB785A2BDA
:1026000003D1054B0022DA7070BD0120FFF7A7FD52
:10261000FEF7D6F8F8E7C046641300201920000042
:10262000A08D00006C13002010B5184B5A221A71AF
:10263000174B984202D10021002307E00120FFF749
:102640008EFDFEF7BDF8F6E701339BB2092B07D8E4
:102650009A001048125C002AF6D0013189B2F3E7E3
:102660000D4B1B888B4207D1084B1B795A2B06D187
:10267000064B00221A7110BDFEF7A2F8F4E7012004
:10268000FFF76DFDFEF79CF8F5E7C04664130020E8
:102690001A2000006C1300206013002000230BE0C0
:1026A0005A00D21851000C4A5218908899000B4ACF
:1026B0005218508001339BB2092B0CD85A00D21803
:1026C0005100054A52185288002AE9D0980003495F
:1026D00009184A80EEE77047A08D00006C130020B7
:1026E00070B50C0016001D001C4B5A2119801C4BA4
:1026F00098421AD1072C26D8002E1CD0E200194B84
:102700009B185E80DD80E400164B0122E254164ADD
:102710001388013313800024104B1B885A2B16D1C9
:102720000E4B00221A80200070BD0120FFF717FD1C
:10273000FEF746F8DEE7002D07D0E200094B9B18B4
:102740005D80DD80DFE70324E6E70424E4E7012081
:10275000FFF705FDFEF734F8E5E7C04698130020C3
:102760001B200000A41300209413002010B50C00BF
:10277000144B5A225A80144B984216D1072C0CD86D
:10278000E300124A9B5C002B07D0E40013000022F8
:10279000E2540F4A1388013B13800A4B5B885A2B83
:1027A00009D1084B00225A8010BD0120FFF7D7FC49
:1027B000FEF706F8E2E70120FFF7D1FCFEF700F88C
:1027C000F2E7C046981300201C200000A41300204C
:1027D0009413002070B50C001500CA00134BD65C92
:1027E000134B5A22DA80134B98420FD1002E13D08C
:1027F000E4000E490C1963882B800D4BDB885A2BA3
:102800000DD10B4B0022DA80300070BD0120FFF7A4
:10281000A6FCFDF7D5FFE9E700232B80EDE70120BB
:10282000FFF79DFCFDF7CCFFEEE7C046A4130020A8
:10283000981300201E20000010B5184B5A221A8150
:10284000174B984202D10021002307E00120FFF737
:1028500086FCFDF7B5FFF6E701339BB2072B07D8DF
:10286000DA001048125C002AF6D0013189B2F3E791
:102870000D4B1B888B4207D1084B1B895A2B06D165
:10288000064B00221A8110BDFDF79AFFF4E70120E4
:10289000FFF765FCFDF794FFF5E7C04698130020AD
:1028A0001F200000A41300209413002070B5234BB8
:1028B0005A225A81224B984201D100240FE0012074
:1028C000FFF74DFCFDF77CFFF7E7E5001D4B00220D
:1028D000EA541D4A1388013B13800134A4B2072C2B
:1028E0001ED8E300174A9B5C002BF6D0E300D218F9
:1028F0005388013B9BB25380002BEED1134B195DE3
:10290000802000228001FFF7F9FCE2000D4B9B18AC
:10291000DB88002BD9D015000A4A55196B80DCE7FB
:10292000064B5B895A2B03D1044B00225A8170BDA0
:102930000120FFF714FCFDF743FFF8E79813002090
:1029400020200000A413002094130020DC8D000040
:1029500010B50023FF248B4206D2C25C6240044CB7
:10296000A45C0133DBB2F6E7E043C0B210BDC04661
:10297000E48D000010B5104B195C0139C9B2012873
:102980000BD0022810D0002800D010BD0B4C200026
:10299000FFF7DEFF013C2070F7E7094C2000FFF74E
:1029A000D7FF013C2070F0E7064C2000FFF7D0FF76
:1029B000013C2070E9E7C046DC91000009180020C6
:1029C000011800201518002010B50024052C05D88A
:1029D0002000FFF7CFFF0134E4B2F7E710BD00009D
:1029E00001281AD0022824D0002800D070471C4BA0
:1029F0001B5C0D2B0DD80133194A1354184B1A5C6C
:102A000018490F231A404B780F20834313434B7010
:102A1000ECE7134B00221A54F0E7114B1B5C0E2B12
:102A200003D801330E4A1354E0E70D4B00221A5429
:102A3000DCE70B4B1B5C0D2B0DD80133084A1354FC
:102A4000074B1A5C08490F231A404B780F20834329
:102A500013434B70CAE7024B00221A54F0E7C046FA
:102A6000E4130020081800201418002010B501F00D
:102A70002FFA040001F0D4FA012800D010BD002C78
:102A8000FCD101F059FAF9E710B501F021FA040080
:102A900001F0C6FA012800D010BD002CFCD101F0D5
:102AA00085FAF9E710B5FEF79FFBFFF7D7FA01208B
:102AB00000F0CCFB00F030FC01F038FA10BD10B58E
:102AC000FEF792FBFFF7CAFA012000F0BFFB00F00F
:102AD00023FC01F025FA10BD10B5FEF785FBFFF7CA
:102AE000BDFA012000F0B2FB00F016FC01F01EFA66
:102AF00010BD10B5FEF778FBFFF7B0FA012000F02B
:102B0000A5FB00F009FC01F00BFA10BD10B501F0B7
:102B100001FA10BD10B500F033FC10BD10B501F086
:102B20008FFD01F0ABFD10BD10B501F0B7FD10BD7C
:102B300010B501F085FD01F0CFFD10BD10B501F01D
:102B4000D9FD10BD10B501F07BFD01F0B5FD10BD44
:102B5000704770477047704782B003681B784179AF
:102B60000B410279521A013204498A561340DBB2F2
:102B70006A46D371D079C0B202B070479C90000011
:102B800010B582B003681B885BBA6A46911DD3807A
:102B9000D3889BB2447923410279121B013252003F
:102BA0000448125E13409BB20B80088880B202B0CA
:102BB00010BDC0467890000070B582B002790B4B12
:102BC0009B5C45790A4E745D1C4300680378521B78
:102BD0000132B25C1140A94023400B43DBB26A468C
:102BE000D371D379037002B070BDC04670900000FD
:102BF0009C900000F0B5CE46474680B583B089462C
:102C0000046801231D0025401C4238D022786378D7
:102C10001B0213436A46D38003795E001D4AB75AEC
:102C2000427994461C4A9046624652004646925B60
:102C300017436A46D68861465B1A01335B004146FA
:102C40005B5A494619406346994033003B400B4369
:102C50009BB2D380D3881B029BB2D188090A0B4355
:102C6000D3800632002D0FD013881B0A23701288E0
:102C700003685A7003B00CBC90469946F0BD238897
:102C80005BBA6A46D380C7E76B4606331B8823804E
:102C9000F0E7C046509000007890000010B5044B5B
:102CA0001878FEF76DFA034B03221A7010BDC04668
:102CB000B5140020A414002010B5194B04221A707A
:102CC000184B1C78072C28D8FEF764FA164B1855B9
:102CD000144A12789B5C154908881B189BB20B801C
:102CE000FF211800884307D0190A11480170FF20FE
:102CF0000340CB180D490B800132D3B2094A13703F
:102D00000C4A127893420AD1084B1B78DB43084ADD
:102D10001370094B0C221A7001E0FFF7FBFE10BD87
:102D2000B0140020B2140020A8140020B814002011
:102D3000BA140020B1140020A41400200022164B65
:102D40001A70164B1A70164B1B681978154B1970B0
:102D5000002315490A8015490A80154A1370154A3F
:102D60001370154A1370154A1370154A1370154ADB
:102D700007211170144A1370144A06391170144A4D
:102D80001370002304E0134A0021D1540133DBB255
:102D9000072BF8D97047C046A4140020B4140020B3
:102DA00094100020B5140020BC140020B81400209A
:102DB000BE140020BA140020B1140020B314002067
:102DC000B2140020B0140020B6140020A514002076
:102DD000BB140020A81400200022002305490A800B
:102DE00005490A80054A1370054A1370054A137095
:102DF0007047C046BC140020B8140020B314002053
:102E0000B2140020A414002010B50D4B1B78013B18
:102E1000DBB2012B0AD90A4B01221A700023094A9E
:102E20001370094A1370FFF7D7FF10BD064B01223C
:102E30001A705520FEF7A4F9044B02221A70F4E729
:102E4000A5140020B4140020B0140020A414002005
:102E500010B5134B1B78072B1ED8124AD25C824246
:102E600014D10133DBB20E4A13700F4A1278934229
:102E700004D00C4AD05CFEF783F90FE00B4B1878B6
:102E8000FEF77EF90A4B0A221A7007E0094B02226C
:102E90001A70FFF7A1FF01E0FFF73CFE10BDC0462E
:102EA000B3140020A8140020B1140020BE14002088
:102EB000A4140020B014002010B50E4B1B788342E0
:102EC00011D10D4B00221A700C4B1B78022B02D033
:102ED000FFF782FF0CE0FEF787F9FFF7BFF8084B1A
:102EE00000221A7004E0044B02221A70FFF774FFEC
:102EF00010BDC046BE140020B0140020A514002050
:102F0000A414002010B50A4B1B785A1ED2B2092A0D
:102F100005D8084B02221A70FFF75EFF10BD0B3B6D
:102F2000DBB2012BF8D8034B05221A70F4E7C04638
:102F3000A4140020B014002010B5094B1B78072BF7
:102F40000AD8084AD05CFEF71BF9074B01221A7019
:102F5000064B07321A7010BDFFF7DCFDFBE7C046D9
:102F6000B3140020A8140020B0140020A4140020E2
:102F700010B5184B00221A70174B1B78002B03D08A
:102F8000164B1B78012B08D0144B1B78022B1AD040
:102F9000FFF722FF00F04CFF10BD114B0B321A70EF
:102FA000104B1B787D2B0AD0092000F03BFF0E4B05
:102FB00000221A700B4B1A780C4B1A80ECE70C208D
:102FC00000F030FFF3E7FFF7B7FF022000F02AFF21
:102FD000E2E7C046B0140020B6140020A51400207B
:102FE000A4140020B5140020B2140020B81400204E
:102FF00010B5234B1A78D31FDBB2012B05D90A2A4F
:1030000003D00C2A01D0002001E0FEF7C3F81C4BCE
:103010001B780C2B08D89B001A4AD3589F46FEF702
:1030200015F9174B01221A7010BDFFF7EDFEFBE7F3
:10303000FFF734FEF8E7FFF79BFFF5E7124B187830
:10304000FEF79EF8114B01221A700D4B07321A70D1
:10305000EAE7FFF7FDFEE7E7FFF72EFFE4E7FFF7FC
:103060002BFEE1E70A4B1B78834205D0074B052274
:103070001A70FFF7B1FED7E7044B03221A70F8E786
:10308000A4140020A8900000A8140020B014002070
:10309000BA14002070B50500214B1B78002B37D1E6
:1030A000204A1478002C33D11F4B07221A701F4B73
:1030B0001B78012B08D0022B12D0FEF783F8FFF704
:1030C00097FFFEF76DF826E0007800F0E5FE184B5C
:1030D0001870AA78174B1A706A78174B1A70ECE7B9
:1030E000134B3C221A70134B343A1A70134B0022C4
:1030F0001A700123072B05D8104AFF21D154013340
:10310000DBB2F7E700230E4A13700E4A1370D4E7C0
:10311000002B02D10124200070BD0224FBE7C04631
:10312000A4140020B4140020B0140020A514002022
:10313000B5140020B1140020B6140020A8140020FB
:10314000B3140020BE140020F0B5C64600B5304BC5
:103150001B78002B53D12F4A1478002C4FD12E4BC3
:1031600007221A702D4B00221A802D4B1A702D4BFE
:103170001E78731EDBB2072B1FD82500220001E04A
:103180000132D2B296421AD943685B5D26498B540C
:103190000135EDB221490F88DB199BB20B80FF216D
:1031A0001F008F43ECD0190A8846204F3970FF2743
:1031B0003B40434419490B80E2E7FFF7ABFC1C4B53
:1031C0001B78164A11885B189BB21380FF221900E6
:1031D000914305D01A0AFF210B40D3180F4A1380E0
:1031E0000E4B1B78DB43114A1370094B07221A70F0
:1031F000FDF7E8FFFFF7FCFEFDF7D2FF02E0002B32
:1032000004D10124200004BC9046F0BD0224F9E75B
:10321000A4140020B4140020B0140020BC1400201A
:10322000B3140020B1140020A8140020BE14002004
:10323000B5140020014B18787047C046B014002028
:10324000014B18787047C046A5140020014B187038
:103250007047C046B4140020014B18787047C04630
:10326000A414002000487047A8140020044B1878CC
:10327000002803D1034B01221A7070470120FCE79C
:10328000B4140020BB140020014B18787047C046CE
:10329000BB140020044B00221A70044B07321A7032
:1032A000034B053A1A707047BB140020B01400207D
:1032B000A514002010B5074B00221A7001F086F902
:1032C00000F004FDFFF73AFDFDF710FFFEF7B0FE3A
:1032D00010BDC046BF14002010B501F0A9F9044B81
:1032E0001B78002B00D110BD00F06CFDFBE7C04641
:1032F000BF14002010B5064B1B78002B00D010BD6A
:1033000000210448FFF7E0F8014B01221A70F6E7AC
:10331000BF1400201520000010B5074B1B78012BAF
:1033200000D010BD044B00221A70FDF77DFF002174
:103330000248FFF7F9F8F4E7BF1400201620000058
:1033400010B5054B00221A7001F040F900F0BEFCE8
:10335000FFF7F4FC10BDC046BF14002010B5FFF706
:10336000EFFFFDF751FFFEF773FEFFF7C3FF10BD40
:1033700010B5FEF773FEFDF737FFFFF7CDFF10BD69
:1033800010B5FDF7D5FF002800D110BDFFF7F0FF05
:10339000FFF790FFFFF7DEFBF7E70000072805D8EF
:1033A000034B1B5C034A11780B4313707047C046F4
:1033B00030910000DB140020072805D8034B1B5C6C
:1033C000034A11780B4313707047C04630910000D8
:1033D000DC140020072805D8034B1B5C034A117836
:1033E0000B4313707047C04630910000D914002081
:1033F000072805D8034B1B5C034A11780B43137055
:103400007047C04630910000DA14002010B5184B08
:103410001B78002B03D1174B1B78002B0AD0164AC0
:1034200013780133DBB21370012B02D9134B012245
:103430001A7010BD124A13780133DBB21370114AAF
:103440001278002A11D11049097810480078814279
:103450000BD292000E481258090151180A7A934271
:10346000E7D3064B01221A70E3E7FFF753FBE0E7CF
:10347000D1140020D4140020D0140020D714002030
:10348000DF140020DD140020E9140020E2140020E5
:103490009410002010B50F4B1A780F4B1A70002AA9
:1034A00015D10E4B19780E4B197000230D490B7076
:1034B0000D49895C0D4A11700D4A13700D4A137045
:1034C0000D4A13700D4A13700D4A137010BDFFF7AB
:1034D00021FBFBE7E4140020DD140020E6140020AB
:1034E000E9140020E5140020708F0000E214002091
:1034F000DB140020DC140020D9140020DA14002092
:10350000E114002010B501F0AFF8040001F0A2F8BA
:10351000002C13D0134B1B78002B0FD1124A1370C1
:10352000124A1370124A137001220E490A7011498F
:103530000A70114A1370114A137010BD0028FCD094
:10354000094B1B78002BF8D1064B1B78002BF4D1CC
:103550000133054A1370054A1370074B00221A7095
:10356000EBE7C046D3140020D6140020D41400206A
:10357000D5140020D1140020D8140020E914002014
:1035800010B5FFF781FE294B1B78002B05D1284A87
:103590001278284909788A4202D3FFF7BBFA10BD96
:1035A00000281FD124490978002929D12349097805
:1035B00000292ED19B0022495B5812019B5CFF2BF6
:1035C00030D01A4B1B789B001D4A9858184B1B781B
:1035D0001B01C018FFF75EFD0028E0D1194B072240
:1035E0001A70DCE7FFF756FE174B00221A70002016
:1035F000FFF750FD0028E4D1124B01221A70E0E7DA
:103600001248FFF747FD0028DBD10E4B0A221A7043
:10361000D7E70F48FFF73EFD0028D2D1094B0A2219
:103620001A70CEE7074B00221A70CAE7DD1400209B
:10363000E9140020E2140020D1140020D41400204A
:1036400094100020E0140020E714002010910000E6
:103650002091000070B5FFF717FE040000F0FAFF9C
:10366000050001F001F8002C44D16C4B1B78002BB5
:1036700042D00023694A1370694A1370694A137073
:10368000694B1B78002B38D1684B1B78012B3AD043
:10369000664B01221A70002800D190E0644B1B7821
:1036A000002B00D18BE0634B1A70FFF72BFF624BAE
:1036B0001A78624B1B789A420DD35F4B00221A7026
:1036C0005F4B1B78002B04D05D4B1A705D4B0132B1
:1036D0001A70FFF717FF5B4B1B78002B07D05A4B74
:1036E0001B78002B03D1594B1B78002B04D0FFF71C
:1036F00047FF01E0FFF744FF70BDFFF7CBFE4B4BE8
:1037000001221A70E7E7002D16D0514B1B78002BD1
:1037100012D0504B1B78012B07D0474A1378013346
:1037200013704C4B01221A7011E04A4B00221A70A0
:10373000464B01321A700AE0454B1B78002B09D02A
:103740000023434A1370434A13703B4A1370FFF738
:10375000D9FEACE7002816D0354B1B78002B12D0D1
:10376000344B1B78012B07D0334A13780133137085
:10377000304B01221A70EAE72E4B00221A70324BAE
:1037800001321A70E3E72A4B1B78002B12D000237A
:10379000274A1370274A1370002D07D001332C4A93
:1037A00013702A4A1370214B00221A70224B0022F8
:1037B0001A70CCE7204A137801331370C7E71C4B0B
:1037C0001B78002B12D00023194A1370194A13706A
:1037D000194A1370002D00D167E701331C4A13709A
:1037E0001A4A1370114B00221A705EE7002D07D0A1
:1037F000174B1B78002B03D0164B01221A7054E78D
:10380000134B1B78002B00D14FE70023104A137095
:10381000104A1370084A137047E7C046D7140020B7
:10382000DF140020D0140020E5140020D81400205C
:10383000D3140020D2140020E9140020E214002048
:10384000DE140020E1140020D1140020D414002044
:10385000D6140020D514002010B50D4B1B78022B78
:1038600006D0002B03D00B4B1B78002B06D110BDCC
:10387000FFF718F9084B00221A70F8E7FDF77EFCF5
:10388000FFF7AAFAFFF71BF9034B00221A70EEE7C5
:10389000E8140020DF140020E014002010B5124BC3
:1038A0001B78022B09D0002B0DD0104A137801335E
:1038B000DBB21370012B11D810BDFFF70DF90C4BC3
:1038C00000221A70F8E70120FFF7C0FCFFF724FD83
:1038D000074B00221A70FFF719F9EDE7FFF709F916
:1038E000034B00221A70E7E7E8140020E7140020D9
:1038F000E014002010B5174B1B78022B0AD0002BC8
:1039000016D1154A1370154A1178154A1170154AC7
:10391000137010BDFFF702F90023124A1370124A08
:1039200013700E4A11780E4A11700B4A1370F0E7AB
:103930000A4B1B78012BECD900240A4B1C700A4B54
:103940001C70FFF7FFF8FFF747FA034B1C70FFF7F7
:1039500081FEDEE7E8140020E0140020D0140020EF
:10396000DF140020D1140020D414002010B51C4B0B
:103970001B78022B06D0002B18D01A4B1B78012B7A
:1039800021D810BDFFF7CAF8174B00221A70154B4B
:103990001B78164A1370012B02D9154B01221A709D
:1039A000144B00221A70FFF755FEEAE700240E4B75
:1039B0001C700F4B01221A70FFF7BAF80D4B1C70E8
:1039C000FFF748FEDDE70024074B1C70FFF7A6F861
:1039D000FFF702FA074B1C70FFF73CFED1E7C04629
:1039E000E8140020D0140020D1140020DF1400209F
:1039F000D7140020E014002010B51F4B1B78022BB9
:103A000017D0002B1BD0042B19D01C4B1B78002B7C
:103A10002DD0FDF7B3FBFFF7DFF9194B1878194BE1
:103A20001B78984224D2FFF7C7FC174B00221A706C
:103A30001DE0FFF71BF8144B00221A7017E0134B20
:103A40001B78002B11D10E4A12780E4909788A4250
:103A50000BD29B000E495B5812019A185378002B29
:103A600005D0094B09221A7001E0FFF753F810BD89
:103A7000FFF750F8FBE7C046E8140020DF140020F1
:103A8000E9140020E2140020E0140020DD140020DE
:103A90009410002010B51B4B1B78002B2ED11A4A16
:103AA00010781A4A1278904228D2194A1278022ABB
:103AB00014D0002A1AD09B00164A9B5800011818EF
:103AC000027A154B1B789A421AD8FFF785F90E4BEC
:103AD0001878FFF771FCFFF7BDFD11E0FEF7C6FF98
:103AE0000E4B00221A70FFF7B5FD09E0FFF756FCF8
:103AF0000A4B00221A70FFF7ADFD01E0FFF70AF84C
:103B000010BDC046DD140020E9140020E21400209E
:103B1000E814002094100020DF140020E01400209E
:103B2000F8B5384B1B78052B26D0032B2CD0364B01
:103B30001B78002B62D1354A1278354909788A42C0
:103B40005CD29B0033495B5812019A18127A324BAF
:103B50001B789A4254D8FFF73FF92B4B1B789B00F8
:103B60002C4A9B58294A107802019B185B78012B3C
:103B700041D0FFF76FFD43E0FEF786FF274B0022A1
:103B80001A70FFF767FD3BE01F4B1C78002C2FD10C
:103B90001E4B1B781E4A1278934229D2A2001D495F
:103BA00052581B01D3185B78012B05D01B4B002208
:103BB0001A70FFF74FFD23E0FFF754FB0600124B8E
:103BC0001D78AA00134BD358104A107801015B18D6
:103BD0005F68AB000F4A9B585B189B78A34204D9DF
:103BE000335D3B550134E4B2F3E7FFF7F3FBDDE768
:103BF000FEF790FF04E0FFF7FBFBBAE7FEF78AFF52
:103C0000F8BDC046E8140020DD140020E9140020AF
:103C1000E214002094100020DF140020E0140020A3
:103C200010B5224B1B78052B06D0032B18D0204B48
:103C30001B78012B2FD810BDFEF776FF1D4B0022FD
:103C40001A701B4B1B781C4A1370012B02D91B4B9B
:103C500001221A701A4B00221A70FFF7FBFCEAE7E8
:103C6000144B00221A700123144A1370154A137062
:103C7000FFF7F8FA002304E0C15C134AD154013382
:103C8000DBB2072BF8D9FEF759FF0D4B00221A7053
:103C9000FFF7E0FCCFE70024064B1C70FFF79CF811
:103CA000074B1C70FFF7D6FCC5E7C046E8140020A0
:103CB000D0140020D4140020DF140020D7140020DA
:103CC000E0140020E3140020C81400200023214A3F
:103CD0001370214A1370214A1370072220490A7079
:103CE00020490B7020490B7020490B7020490B7044
:103CF00020490B7020490B7020490B70204901208E
:103D0000087020490B7020490A70204A1370204A1D
:103D10001370204A1370204A137006E000221F49D6
:103D2000CA541F49CA540133DBB2072BF6D900230A
:103D30001C4A13701C4A13701C4A13701C4A1370DF
:103D40001C4A13701C4A13701C4A13701C4A1370CF
:103D50007047C046E4140020E6140020DD14002063
:103D6000E2140020DB140020DC140020D914002011
:103D7000DA140020E0140020D8140020E9140020F8
:103D8000D7140020E7140020E8140020E5140020D8
:103D9000DF140020DE140020E1140020C0140020F5
:103DA000C8140020E3140020D1140020D4140020F3
:103DB000D0140020D3140020D6140020D2140020E8
:103DC000D514002010B5FFF721FBFFF733FA124B93
:103DD0001870124B1B780C2B05D89B00104AD35837
:103DE0009F46FFF737FC10BDFFF736FDFBE7FFF7F7
:103DF00055FDF8E7FFF77EFDF5E7FFF7B7FDF2E7C2
:103E0000FFF7FAFDEFE7FFF745FEECE7FFF788FE67
:103E1000E9E7FFF705FFE6E7E8140020E0140020DB
:103E2000DC900000014B18707047C046E014002081
:103E300010B5134B1B780A2B0CD0124B1B78002BA0
:103E400005D1114A1278114909788A420BD3FEF73D
:103E500061FE10BD0E48FFF777F90028F9D1084B35
:103E60000B221A70F5E79B000A4958581201801876
:103E7000FFF76AF90028ECD1014B08221A70E8E735
:103E8000E0140020DD140020E9140020E2140020DA
:103E9000109100009410002070B5010045088008C2
:103EA000CE080C094A092B004B40584060400123C2
:103EB000184075406C4054402340DB43DBB2820124
:103EC000D801104340B23F2319400843C0B270BD2F
:103ED000014B18787047C046DD1400200048704739
:103EE000C014002000487047C8140020014B002275
:103EF0001A707047E3140020014B18787047C046D1
:103F0000D3140020014B18787047C046D614002007
:103F100000207047014B01221A707047EE140020F8
:103F2000014B01221A707047EF140020014B01224F
:103F30001A707047ED14002010B5FFF7E9FF002854
:103F400000D010BDFFF7D8FF0400FFF7DBFF154BD3
:103F50001B78632B15D822000243D2B2002A10D15D
:103F60000133104A13700F4B1B78642BE9D10E4BB1
:103F70001B78002BE5D10C4B01221A70FEF7E8FDEF
:103F8000DFE70443E4B2002CEDD0622B03D8023308
:103F9000044A1370E7E7632BE5D10133014A13703C
:103FA000E1E7C046EB140020F114002010B5FFF744
:103FB000AFFF002800D010BDFFF79EFF0400FFF701
:103FC000A1FF154B1B78632B15D822000243D2B2F8
:103FD000002A10D10133104A13700F4B1B78642B49
:103FE000E9D10E4B1B78002BE5D10C4B01221A7046
:103FF000FEF7AFFDDFE70443E4B2002CEDD0622B07
:1040000003D80233044A1370E7E7632BE5D1013389
:10401000014A1370E1E7C046EC140020F0140020C0
:10402000014B18787047C046EA140020064B1B6805
:104030001A8C002A01D0013A1A849A8C002A01D0E5
:10404000013A9A847047C0467815002010B50023C5
:10405000934204D2CC5CC4540133DBB2F8E710BD08
:1040600001807047008843425841C0B27047000049
:104070000A4B1A68D38901339BB2D3810A2B04D02F
:10408000D189138A994203D070470023D381F7E77F
:104090002E230221D1542D3B9374F5E7781500208F
:1040A0000E4B1B6833215A5C042002435A542F22C2
:1040B0003239995400229A741A8A013292B21A82C1
:1040C0000A2A04D0198ADA89914203D07047002263
:1040D0001A82F7E72F2200219954F7E7781500207C
:1040E00010B5134B1B6818689C891A8DA41AA4B2CA
:1040F00099681B8ADB00C9180822FFF7A7FF062C66
:104100000CD80B4B1A682D230321D154084B1A6885
:10411000138D06331385FFF7C3FF10BD044B1868DA
:104120002D230422C25424302821FFF799FFEDE704
:104130007815002010B50B4B1B6800222C215A5417
:1041400001315A549A81DA811A829A7432222C39B6
:10415000995432315A5C312082435A54FFF7C6FEDB
:1041600010BDC0467815002070B5214B1B6818683B
:10417000198AC9009A68944661444A780F24A24378
:1041800033255C5D4026B4435C55002A04D19C89EC
:10419000002C01D0062C0ED9102A06D19A89062AA5
:1041A00003D980246401A24210D32F220321995401
:1041B000FFF7C0FF70BD0832FFF748FFFFF770FF41
:1041C0000B4B1A682D230321D154F3E70822FFF784
:1041D0003DFF074C052322681385FFF761FF206828
:1041E0002D230422C25424302821FFF739FFE1E7B0
:1041F0007815002070B5364B1C6820002430FFF77E
:1042000031FF2D23E35C032B1AD0042B3AD0002B73
:1042100000D070BDE289238A9A420DD03323E35C3B
:104220000122110019401A42F3D05B07F1D4332365
:10423000E154FFF799FFECE7A37C012BE9D1EDE70F
:104240003323E35C5A0607D49B06E2D52F230322CF
:10425000E254FFF76FFFDCE74022934333256355B9
:10426000FFF768FF1A4B18682C230622C254425DE0
:104270005333134002221343435520302821FFF7C4
:10428000EFFEC6E73323E35C5A0619D5E189228A9B
:1042900091420ED1A27C012A0BD00028B9D02F2246
:1042A0000321A154113293430D3AA354FFF742FF67
:1042B000AFE7402293430D3AA354FFF711FFA8E75D
:1042C0009B06A6D52F230322E254FFF733FFA0E776
:1042D0007815002070B5474B1B685968D889C00015
:1042E0009A68944660440A78013AD2B27C2A76D819
:1042F0004A780F241500A5430CD0102D44D02E224F
:10430000062199542D315A5C022082435A54FFF7FA
:1043100011FF6EE00F242240541EA4B2052C28D8B1
:104320008C787F2C02D1CC78782C1BD09A810822F3
:10433000FFF78CFE2F4D2E2301222968CA54FFF768
:1043400097FE2B682C220021995433241A5D3131B9
:104350008A431A55FFF7CAFD2A68135D02218B4371
:10436000135546E0C821203318004900FFF778FEB6
:104370003FE02E22062199542D315A5C02208243BF
:104380005A54FFF7D7FE34E01202F02424012240F1
:104390008C781219062A17D99A810822FFF756FE3F
:1043A000144D01242E232A68D454FFF761FE286897
:1043B0003123C454053B0722C254273BC384203019
:1043C0002821FFF74DFE14E02E22062199542D31AD
:1043D0005A5C022082435A54FFF7ACFE09E02E22B9
:1043E000062199542D315A5C022082435A54FFF71A
:1043F000A1FE70BD7815002070B5514B1B6859683F
:10440000DC89E0009A68944660440A78013AD2B2A6
:104410007C2A00D989E04D780F222E0096430CD0DB
:10442000202E36D02E22062199542D315A5C02209E
:1044300082435A54FFF77EFE81E00F221540013D72
:10444000ADB2052D1AD88A787F2A02D1CA78782A87
:104450000AD02E22062199542D315A5C0220824323
:104460005A54FFF767FE6AE0FEF775FB344B186895
:10447000C82120304900FFF7F3FD60E02E2206211D
:1044800099542D315A5C022082435A54FFF752FE50
:1044900055E031229E5C223A1540AE423AD11A8A4A
:1044A000944202D19A7C002A29D10822FFF7CEFD3E
:1044B000234C2E2301222168CA54FFF7D9FD20681E
:1044C000C38C06339BB2C3843121425C01320F247A
:1044D00022404254828993420CD33322835C2F3989
:1044E0008B432A310024445405318B438354FFF716
:1044F000FDFC24E020302821FFF7B2FD1FE02E2232
:10450000062199542D315A5C022082435A54FFF7F8
:1045100011FE14E02E22062199542D315A5C0220FE
:1045200082435A54FFF706FE09E02E2206219954D1
:104530002D315A5C022082435A54FFF7FBFD70BDB7
:104540007815002010B5204B1C6820002030FFF7A4
:1045500089FD2C23E35C062B02D0072B1AD010BD5B
:104560003322A35CA256002A0DDB002801D1DA0613
:10457000F5D52E220621A1542C3A93433132A3546F
:10458000FFF7D8FDEBE77F2213404C3AA354FFF727
:10459000A1FEE4E73322A35CA256002A0DDB00282B
:1045A00001D1DA06DBD52E220621A1542C3A934301
:1045B0003132A354FFF7BEFDD1E77F2213404C3ABE
:1045C000A354FFF719FFCAE77815002070B5144D02
:1045D000144C2C60FFF782FC20602C68FFF782FCF3
:1045E00060602B68104A9A60002200241A845A8462
:1045F0009A84DA841A855A852E329C5401329C544E
:1046000001327D2199542F3A4C395A5401315A5470
:10461000FFF790FD2A683323D454044B1C7070BDFF
:1046200078150020F414002028150020F214002032
:1046300010B5FFF7FBFCFFF7DDFDFFF783FF10BDB3
:10464000034B196833228B5C042083438B547047DF
:1046500078150020034B1A683323D35C5B100120CC
:104660001840704778150020034B1A683323D35C39
:104670009B100120184070477815002010B5064B9C
:10468000196833228B5C302003438B54FFF7B2FD53
:10469000FFF758FF10BDC0467815002010B5054B38
:1046A000196833228B5C102003438B54FFF74AFFB9
:1046B00010BDC0467815002010B5064B196833228E
:1046C0008B5C302003438B54FFF794FDFFF73AFFD8
:1046D00010BDC0467815002010B5054B196833226F
:1046E0008B5C402003438B54FFF784FD10BDC04614
:1046F0007815002010B5054B19683322885C80239B
:104700005B4203438B54FFF71DFF10BD781500205B
:10471000012800D970470029FCD08000024B1818EE
:10472000418002230371F5E7801B0020012800D996
:1047300070478000024B1818002303714380F7E78D
:10474000801B0020012800D970478000024B1818F8
:1047500001230371F8E7C046801B0020012801D91E
:10476000002070478000024B18180079F9E7C04616
:10477000801B002070B500282DD0174B1C78002C12
:1047800029D1164BD8600022DA75250004E02800F4
:10479000FFF7CCFF0135EDB2012DF8D90F4A1378A0
:1047A00004218B4303398B4301318B4306318B4307
:1047B00008318B431370002313760633937505E09D
:1047C000064B1B1900221A740134E4B2022CF7D9EB
:1047D000014B01221A7070BD7C150020801B002047
:1047E000014B98757047C046801B0020F8B5040047
:1047F0000D00002827D0002925D006783E2E23D092
:10480000354B1B78DA07D20F1907C90F0A439B07EC
:10481000DB0F134322D0304B1B78DB0613D42E4B17
:104820001A7810210A431A707F221A745E74073AAC
:104830009A74753A9A820020FFF790FF002809D1F8
:10484000254B05229A75F8BD0020FFF787FF022847
:10485000F9D1D5E70020FFF775FFF1E70020FFF75A
:104860007DFF07003E2E13D01B4BDB68002BEAD0E8
:1048700018682A00210004F0A3F9174BDA681581A3
:1048800004229A75022FDED10020FFF75BFFDAE7E2
:104890000123E356002B17DB0F4B1B78DB0613D4E9
:1048A0000D4B1A7810210A431A70402216431E74C9
:1048B00062785A7402229A8203329A750228C2D10F
:1048C0000020FFF73FFFBEE7022FBCD1FA2189008D
:1048D0000020FFF71DFFB6E7801B00207047000097
:1048E000002806D1064B00221A705A7001329A70C5
:1048F0007047044B00221A705A7001329A70F7E721
:10490000AC1000201C120020F0B5002821D1174C5B
:10491000251DA11EE21E231F1E301B7816789B1B2F
:104920009FB2002B1DDB002B02D10B78002B1BD17B
:1049300073009B199B00EB18236013780133DBB2E3
:104940001370834201D30023137001230B700120E5
:10495000F0BD074B1C1D1D000835991C5A1C042076
:10496000DBE73F183BB2DEE70020F1E7B0100020A4
:104970001C12002030B5050001240023122001E0A4
:104980000133DBB2112B09D8012C07D15A0004499D
:10499000525AAA42F4D118000024F1E730BDC046B3
:1049A00054910000F8B5002424E00135ADB2052D86
:1049B0000FD8E8B2FCF7D4FDAC42F6D00028F4D111
:1049C000194B1A8804326B001849CA52EDE70025CA
:1049D000EDE7FCF711FE0122B24015490B88934325
:1049E0000B80FCF71FFE3800FCF7B0FCFFF776FFEA
:1049F0000134A4B2052C16D8FCF7FEFD0D4B1E5D4C
:104A0000FCF710FE6300094A9A5A074B1B889A422A
:104A1000EED1E7B23800FCF7A3FD0028D7D002287A
:104A2000E6D10025C3E7F8BD341800204418002063
:104A3000381800203C180020F0B5CE4600B582B0F2
:104A40000192002814D12148021D861EC31E051F95
:104A50001E272C78A1461B78E31A9CB2A4461C1E84
:104A60000EDB3378012B0FD002B004BC9146F0BDB1
:104A7000174D281D2A000832AE1C6B1C0427E8E7DE
:104A80006346DC1924B2ECE74B465B004B449B00C9
:104A9000D3180360019A1A804B681B031B0F02682E
:104AA00093700368D81C08319A7804F089F82B7841
:104AB0000133DBB22B70BB4201D300232B703C1BB4
:104AC000012CD1D100233370CEE7C046B0100020B6
:104AD0001C120020F8B506000F0014001D00FCF7A2
:104AE0003FFD032802D0012800D0F8BD7A00114B09
:104AF000D15A2B0022003000FCF7AEFDFCF77CFD04
:104B00000D4B9F550123BB409BB20C490A881A43A9
:104B10000A800B490A889A430A80FCF783FD094BF7
:104B20001B880433720008498B523000FCF734FCB8
:104B30000120DAE7E49100003C180020381800203A
:104B40003618002034180020441800200020704738
:104B500010B5064A138801331380054B1B789B0759
:104B600000D410BDFFF71EFFFBE7C046341800203D
:104B70003018002010B504000020FFF7B1FE01201E
:104B8000FFF7AEFE0023104A1370104A1380104A3C
:104B90001380104A1380FCF743FCFCF72DFD002C1A
:104BA00009D10A4A138880218B431380084A13884D
:104BB0000B439BB21380044A137802210B43DBB2F0
:104BC0001370FCF72FFD10BD30180020381800209E
:104BD000361800203218002070B50400FE23037040
:104BE000204B1B789B0700D470BDFBF71DFE0020F7
:104BF000FFF78AFE002813D01B4E73681888FFF752
:104C0000B9FE0500207073689B786370102807D880
:104C100071688A78154B1B5C9A4204D0FF2323707D
:104C2000FBF70AFEE0E7124B1B5C9A420AD0A01C7D
:104C3000033103F0C5FF0122AA400E490B8813433C
:104C40000B80EDE7A01C03311A0003F0B9FF064BFF
:104C50005B689B7863700122AA4006490B88134366
:104C60000B80DDE730180020AC10002078910000A8
:104C7000409100003218002070B505000C001600AD
:104C8000FE230B70114B1B789B0700D470BDFBF704
:104C9000CBFD0120FFF738FE002807D00C4B5B68E6
:104CA0009A782270002A04D1FE232370FBF7C4FDFA
:104CB000ECE7074B59680331300003F081FF012214
:104CC000AA4004490B8813430B80EFE730180020FB
:104CD0001C1200203218002010B50400064B1A5C8C
:104CE000064B1B789B0700D410BD054B185C0B00CE
:104CF0002100FFF7EFFEF7E7DC91000030180020FD
:104D00003891000010B50400064B1B789B0700D4B7
:104D100010BD054B185C13000A002100FFF7DAFEF6
:104D2000F6E7C046301800203891000005280FD85B
:104D3000094B1B889BB2C340DB070BD4074B1B8876
:104D40009BB2C340DB0701D4012002E0022000E057
:104D5000FF2070470020FCE736180020381800209C
:104D600010B50400052800D910BDFCF745FC012250
:104D7000A24003490B8893430B80FCF753FCF3E7F5
:104D800036180020112806D8054B1B88C340DB07C6
:104D900003D5002000E0012070470120FCE7C04659
:104DA00032180020112805D80122824002490B88C0
:104DB00093430B807047C0463218002010B50300A3
:104DC000084A105C052B01D9012010BDFCF7C8FB77
:104DD000032803D0012803D00120F6E70020F4E7E0
:104DE0000020F2E738910000044B1A7801231000EC
:104DF00018401A4200D001207047C04630180020E9
:104E0000024A137801218B43137070473018002039
:104E100070B5FCF7D3FB0400FCF714FC052C0CD890
:104E2000064B1A5D012393409BB205490A889A43B9
:104E30000A8004490A8813430B8070BD3C18002087
:104E4000381800203618002010B50BE002000120B1
:104E5000FFF7F2FD04E0012300E00123002B61D104
:104E6000FCF78EFBFCF78AFA012860D1FCF77EFA8A
:104E70002F4A11682F4A9042E8D09D28EDD0AC22ED
:104E80009200904230D02C4A90422FD02B4A904230
:104E90002ED0CD3290422DD0294A90422CD0294A92
:104EA00090422BD0284A90422AD0284A904229D0BA
:104EB000274A904228D0274A904227D08D3AFF3A7D
:104EC000904225D0244A904224D03022FF32904292
:104ED00022D0224A904221D0214A904220D0214A19
:104EE0009042B8D00023B9E70123B7E70123B5E723
:104EF0000123B3E70123B1E70123AFE70123ADE7C6
:104F00000123ABE70123A9E70123A7E70123A5E7D5
:104F10000123A3E70123A1E701239FE701239DE7E5
:104F200001239BE702000020FFF786FD98E710BDF4
:104F3000DC190020940600000A020000170200009D
:104F4000E5020000DE0300000A0400004404000043
:104F5000B7020000BA0200000904000003050000C7
:104F6000290500000105000010B5032800D010BD80
:104F700002F0BEF8034A137801210B43DBB2137031
:104F8000F5E7C0463018002010B5040000291CD1F8
:104F9000FFF714FF002806D00122A24019490B8810
:104FA00013430B8010BDA200174BD1582000FFF710
:104FB00093FE0122A24013490B8893430B806400A7
:104FC000124BE25A124BE252ECE7FFF7F7FE0028D1
:104FD00006D00122A2400B490B8813430B80E1E766
:104FE000A200094BD1582000FFF776FE0122A24013
:104FF00004490B8893430B806400044B0022E25267
:10500000D0E7C046C4180020F0910000B818002076
:105010009818002030B583B004006B469D1D2A000F
:10502000D91D002001F095F82B78032B07D0012221
:10503000A24021490B8813430B8003B030BD032CE1
:1050400026D863001D4A995A1D4A9B5A994211D28B
:105050005B1A62001B49525A934206DC0122A240AD
:1050600015490B8813430B80E7E700212000FFF769
:105070008BFFE2E76000144A825A521AD318114A91
:10508000825A9342D9DD00212000FFF77DFFD4E74B
:1050900063000B4A9A5A0B495B5A9A4206D801227E
:1050A000A24005490B8813430B80C6E7012120006D
:1050B000FFF76AFFC1E7C046C41800209818002017
:1050C000B8180020089200001492000010B50400E7
:1050D0001F4B1B5C012B00D010BD43001D4A9A5A88
:1050E0001D49595A8A4202D801321A481A5263009D
:1050F000184A9B5A9942EFD862001849515A5B1AD4
:105100001749525A93420ADC0122A24015490B88E2
:1051100013430B8064000F4B0022E252DCE72000B7
:10512000FFF74CFE0028D7D1A2000F4BD15820002A
:10513000FFF7D2FD61000020064BC8520122A240B9
:10514000084C238893432380044BC852C4E7C046CD
:10515000A8100020B8180020149200009818002011
:1051600008920000C4180020F091000030B585B00E
:10517000002407E0FFF7EAFC112C38D801AB1B78BC
:10518000FE2B34D001AD2800FFF726FD0134E4B238
:105190002B78FD2BF0D8132BECD0102BECD8154A24
:1051A000D25C002A07D001AB1B789B00124A9B58A7
:1051B00098470E2514E09900104A8858104AD25C8E
:1051C0006B46991D03F0FCFCEDE791000B4BCB58AF
:1051D0000B498A5C0021002000F016FF0135EDB27A
:1051E000102DC9D801AB1A78AA42F7D1EDE705B066
:1051F00030BDC0469C1B0020A49200008C91000092
:105200004091000010B5042800D910BDFFF702FF3F
:10521000FBE7000010B5224900220BE05000214BB3
:10522000C35A214C005B1B1A9BB2013B0B8002311D
:10523000013292B2032AF1D9042307E058001B4A35
:10524000825A01320A80023101339BB2052BF5D913
:105250000023052B06D85900154A00208852013337
:105260009BB2F6E7134B00221A8000230CE0590092
:1052700000200022104C0853104C08531049CA5407
:105280001049CA5401339BB2102BF0D900230E4AA7
:1052900013800E4A138000220D4B1A7010BDC046B9
:1052A000B818002014920000D49100000892000069
:1052B00098180020C41800205018002074180020EE
:1052C000A41800209C1B0020B6180020C61800203F
:1052D000C818002070B504000E00FFF753FD051E2E
:1052E00018D0244A61008B5A01338B52224B1B5D2C
:1052F000002B17D163001F4A9B5AB34209D31E4BA0
:1053000002221A551D4B013A1A55A4001C4BE358B2
:10531000984770BD6300174A002199522000FFF79B
:1053200041FDE3E7022B08D06300124A9B5AB342C7
:105330000CD3114B02221A55EBE7002DE9D1013BAA
:105340000D4A135564000F4AA352E2E763000D4A69
:105350009B5AB34209D30023074A1355074A1355F2
:10536000A400094BE3589847D3E764000133054A8A
:10537000A352CEE750180020A41800209C1B002048
:1053800060920000741800201C92000010B5040008
:10539000FFF7CCFC002806D1052C05D1200001F038
:1053A00091FE042C04D010BD2000FFF7D9FCF5E7D6
:1053B000200000F01DFEF6E770B582B0224B1B788E
:1053C000012B01D002B070BD6B469C1D2200D91D7F
:1053D000002000F0BEFE2378032B09D000240D2C02
:1053E0002ED81A492000FFF775FF0134E4B2F6E722
:1053F000174A13880133138000240125154E0EE04F
:105400002000FFF763FE144B1B882B4214D1023699
:105410006D00ADB22000FFF7B9FF0134E4B2052CF6
:10542000DCD8032CECD9328863000C495B5A9A42D1
:10543000E9D801323280E6E72000FFF7EBFDE6E72E
:10544000FFF794FEBEE7C0463A190020102700007F
:10545000C6180020B8180020C418002008920000C8
:1054600070B504000D000120A36898471023237035
:1054700000232B7070BD70B504000D000120A368DF
:1054800098471023237000232B7070BD70B5040063
:105490000E0015000378102B12D023785A1E022A12
:1054A00000D9DCE029780F2208009043102841D071
:1054B000202800D198E0002810D010232370D0E0DD
:1054C000818100220023C28102828374C374037528
:1054D0000A324275837001230370DEE70F231940FF
:1054E000E181644AFF33D152A389994201D2002954
:1054F00002D110232370B4E0013BA3811020A368E4
:10550000984700232382E389002B0DD06268013580
:1055100006E02B78137001320135238A0133238290
:10552000218AE3899942F4D31120A3689847102374
:10553000237096E0A389023BA3812B781B02F02203
:10554000120113406A789B18E381082E02D01023C1
:10555000237086E09E4202DD1023237081E010203C
:10556000A3689847E38987225200934214D91023F5
:105570002370414BDC3A1A703F4B00225A700A32BA
:105580009A700520FFF71AFC002822D022783A4BA7
:10559000DA702023237064E03649872252008B5250
:1055A0000123237500232382023308E0228AE95C69
:1055B00060688154228A013222820133DBB2B34215
:1055C000F4D31A232370183B63702B4B30221A70CC
:1055D000D2E70530FFF7C4FB274A03210520FFF778
:1055E00091FB0023A3703CE0023BDBB2012B02D90C
:1055F0001023237035E0237D59400A0702D0102381
:1056000023702EE0A2899219013AA281E27C013234
:10561000E27401332375012304E0228A01322282DD
:105620000133DBB2B34208D2228A872149008A4281
:10563000F3D2E95C60688154EFE7228AE3899A42F9
:1056400005D31120A36898471023237009E0002395
:10565000A370033323701020A368984701E0102340
:1056600023702378102B00D070BDA36812209847B8
:10567000FAE7C046A0150020CC180020F0B5C646B9
:1056800000B582B0040015000378192B0AD02678E3
:105690003300113BDAB2072A00D94CE19300AC4A3F
:1056A000D3589F460023038200228274C37403757B
:1056B00043758370C389072B02D811230370E6E773
:1056C00012230370E3E70520FFF778FB002800D0E2
:1056D00033E1A37B0F251D406B461D700135002370
:1056E000238260686B46591C0123072B0DD8268A3C
:1056F000E289964209D202780A7001310130228A89
:10570000013222820133DBB2EFE70520FFF728FBED
:105710006A4629000520FFF7F5FA102363700A3363
:1057200023700AE10520FFF749FB002800D004E1BF
:10573000E289110A0F230B4010210B4369460B70BD
:105740004A700123237500232382606802310223FB
:1057500008E002780A7001310130228A0132228287
:105760000133DBB2072B03D8258AE2899542F0D3B7
:105770000520FFF7F5FA6A4608210520FFF7C2FA6F
:105780000023A3701333637007332370D5E02B78A5
:105790000F229343302B02D010232370CDE0082931
:1057A000FAD10023E3752A780F331340012B4CD034
:1057B000022B4FD0002B02D010232370BDE000221B
:1057C000E274AF780222AA56002A17DB002F1ED0FF
:1057D0003A000F32D2B2082A18D90521380002F057
:1057E0007DFAC3B298460521380002F0FDFAC9B22D
:1057F000002916D047460137FFB208E03A000F32C1
:10580000D2B2082AE2D91023237096E01F00142E8A
:1058100009D06B78A37467750023A37017332370C6
:105820008BE04746F3E7A27C6B789A4202D01023C4
:10583000237082E0637DBB4202D0102323707CE0A2
:105840000023A3701733237077E00023A37018336D
:10585000237072E0102323706FE0002D03D010231B
:105860002370637069E00520FFF7A8FA002864D16F
:105870001422A2560F231340202213436A461370AA
:10588000228A63689C4662446B46591C012508E0E5
:1058900013780B7001310132238A013323820135E1
:1058A000EDB2072D03D8208AE3899842F0D3052072
:1058B000FFF756FA6A4629000520FFF723FAE37C32
:1058C0000133DBB2E374227D01320F210A402275DD
:1058D000A27C934211D3002A0FD0228AE3899A42F4
:1058E00004D3102363700A33237026E00023A370CF
:1058F00014336370063323701FE0228AE3899A42CF
:1059000014D20023A370637D002B02D115332370C2
:1059100013E00520FFF70AFA002802D115232370AF
:105920000BE0152363700533237006E010236370CA
:105930000A33237001E0102323702378102B03D047
:1059400002B004BC9046F0BDA36801209847F7E779
:10595000E892000010B5112807D012280CD01028AA
:1059600000D010BDFEF7BAFFFBE7054887235B00B8
:10597000C15AFEF73BFFF4E7FEF7B0FFF1E7C04680
:10598000A015002010B5012807D0022808D0002853
:1059900000D010BDFEF7A2FFFBE7FEF79FFFF8E780
:1059A0000320FEF71DFFF4E730B585B04F4D00240E
:1059B0001FE00520FFF7BAF900280AD16B782B7099
:1059C000102B02D00023AB7010E00230AB68984778
:1059D000F8E702280AD0AB78022B07D92900163144
:1059E0002800FFF748FD01E0312B11D818350134AC
:1059F000E4B2012C36D82A78102AF7D0AB780133DC
:105A0000DBB2AB701A2AF1D89100394841588F4661
:105A1000290017312800FFF723FDE7E7312BE5D9EF
:105A2000102A02D80023AB70E0E7290017312800C4
:105A3000FFF716FDF6E7312BD8D910232B70002382
:105A4000AB70D3E7322BD1D910232B700023AB706E
:105A5000CCE76A7D9342C9D3002200212800FFF7DA
:105A60000DFEC3E76B46DC1D02AA21001120FFF7E3
:105A700003F92178FE2907D01C4B1B78102B1DD968
:105A800002AA1A48FFF7FAFD0520FFF797F9174B0E
:105A90001B7E202B18D0154B1A78102A0CD91A2AE5
:105AA00005D801239340B722D204134204D102AA9D
:105AB00000210E48FFF7E2FD05B030BD0B4802AAF9
:105AC0001830FFF7E3FCDFE70028E4D10530FFF7EB
:105AD00047F9084C220003210520FFF713F9034B77
